:020000040800F2
:100000000000082095210008512000085320000816
:100010005520000857200008592000080000000063
:100020000000000000000000000000002156000851
:100030005B20000800000000C15600085D20000899
:10004000E5210008E5210008E5210008E521000878
:10005000E5210008E5210008E5210008E521000868
:10006000E5210008E5210008E5210008E521000858
:10007000E5210008E521000875200008E5210008B9
:10008000E5210008E5210008E52100088520000899
:1000900095200008A5200008E5210008E5210008BA
:1000A000E5210008E5210008E5210008E521000818
:1000B000E5210008E5210008E5210008E521000808
:1000C000E5210008E5210008E5210008E5210008F8
:1000D000E5210008E5210008E5210008B520000819
:1000E000E5210008E5210008E5210008E5210008D8
:1000F000E5210008E5210008E5210008E5210008C8
:10010000E5210008E5210008E5210008E5210008B7
:10011000E5210008E5210008E5210008E5210008A7
:10012000E5210008E5210008E5210008E521000897
:10013000E5210008E5210008E5210008E521000887
:10014000E5210008E5210008E5210008E521000877
:10015000E5210008E5210008E5210008E521000867
:10016000E5210008E5210008E5210008E521000857
:10017000E5210008E5210008E52100080000000055
:10018000E5210008E5210008E5210008E521000837
:10019000E5210008E5210008E5210008E521000827
:1001A000E5210008E5210008E5210008E521000817
:1001B000E5210008E5210008E5210008E521000807
:1001C000E5210008E521000800000000E521000805
:1001D000E5210008E5210008E5210008E5210008E7
:1001E000E5210008E5210008E5210008E5210008D7
:0801F000E5210008E5210008EB
:1002000081F0004102E000BF83F0004330B54FEAC7
:1002100041044FEA430594EA050F08BF90EA020F34
:100220001FBF54EA000C55EA020C7FEA645C7FEAC7
:10023000655C00F0E2804FEA5454D4EB5555B8BFEA
:100240006D420CDD2C4480EA020281EA030382EA5B
:10025000000083EA010180EA020281EA0303362DED
:1002600088BF30BD11F0004F4FEA01314FF4801CC0
:100270004CEA113102D0404261EB410113F0004FD2
:100280004FEA03334CEA133302D0524263EB430389
:1002900094EA050F00F0A780A4F10104D5F1200E27
:1002A0000DDB02FA0EFC22FA05F2801841F1000182
:1002B00003FA0EF2801843FA05F359410EE0A5F156
:1002C00020050EF1200E012A03FA0EFC28BF4CF087
:1002D000020C43FA05F3C01851EBE37101F000453D
:1002E00007D54FF0000EDCF1000C7EEB00006EEB4A
:1002F0000101B1F5801F1BD3B1F5001F0CD34908D4
:100300005FEA30004FEA3C0C04F101044FEA44522A
:1003100012F5800F80F09A80BCF1004F08BF5FEAB1
:10032000500C50F1000041EB045141EA050130BD91
:100330005FEA4C0C404141EB0101013C28BFB1F5A3
:10034000801FE9D291F0000F04BF01460020B1FAEE
:1003500081F308BF2033A3F10B03B3F120020CDAC1
:100360000C3208DD02F1140CC2F10C0201FA0CF09F
:1003700021FA02F10CE002F11402D8BFC2F1200C04
:1003800001FA02F120FA0CFCDCBF41EA0C019040BA
:10039000E41AA2BF01EB0451294330BD6FEA040403
:1003A0001F3C1CDA0C340EDC04F11404C4F12002EE
:1003B00020FA04F001FA02F340EA030021FA04F300
:1003C00045EA030130BDC4F10C04C4F1200220FA57
:1003D00002F001FA04F340EA0300294630BD21FA95
:1003E00004F0294630BD94F0000F83F4801306BF5B
:1003F00081F480110134013D4EE77FEA645C18BF4F
:100400007FEA655C29D094EA050F08BF90EA020FE5
:1004100005D054EA000C04BF1946104630BD91EADD
:10042000030F1EBF0021002030BD5FEA545C05D1E0
:100430004000494128BF41F0004130BD14F580041F
:100440003CBF01F5801130BD01F0004545F0FE4193
:1004500041F470014FF0000030BD7FEA645C1ABFC8
:10046000194610467FEA655C1CBF0B46024650EAFF
:10047000013406BF52EA033591EA030F41F400212B
:1004800030BD00BF90F0000F04BF0021704730B5B1
:100490004FF4806404F132044FF000054FF0000186
:1004A00050E700BF90F0000F04BF0021704730B547
:1004B0004FF4806404F1320410F0004548BF40421C
:1004C0004FF000013EE700BF42004FEAE2014FEA71
:1004D00031014FEA02701FBF12F07F4393F07F4F4C
:1004E00081F06051704732F07F4208BF704793F04F
:1004F0007F4F04BF41F40021704730B54FF4607462
:1005000001F0004521F000411CE700BF50EA010264
:1005100008BF704730B54FF000050AE050EA01020D
:1005200008BF704730B511F0004502D5404261EB7D
:1005300041014FF4806404F132045FEA915C3FF4BE
:10054000D8AE4FF003025FEADC0C18BF03325FEA5B
:10055000DC0C18BF033202EBDC02C2F1200300FA0C
:1005600003FC20FA02F001FA03FE40EA0E0021FA31
:1005700002F11444BDE600BF80F0004002E000BF7D
:1005800081F0004142001FBF5FEA410392EA030F7E
:100590007FEA226C7FEA236C6AD04FEA1262D2EBC8
:1005A0001363C1BFD218414048404140B8BF5B42CD
:1005B000192B88BF704710F0004F40F4000020F066
:1005C0007F4018BF404211F0004F41F4000121F07C
:1005D0007F4118BF494292EA030F3FD0A2F10102C6
:1005E00041FA03FC10EB0C00C3F1200301FA03F104
:1005F00000F0004302D5494260EB4000B0F5000F27
:1006000013D3B0F1807F06D340084FEA310102F1E5
:100610000102FE2A51D2B1F1004F40EBC25008BF97
:1006200020F0010040EA03007047490040EB000061
:10063000013A28BFB0F5000FEDD2B0FA80FCACF162
:10064000080CB2EB0C0200FA0CF0AABF00EBC2508F
:1006500052421843BCBFD0401843704792F0000F7D
:1006600081F4000106BF80F400000132013BB5E7D0
:100670004FEA41037FEA226C18BF7FEA236C21D046
:1006800092EA030F04D092F0000F08BF08467047AB
:1006900090EA010F1CBF0020704712F07F4F04D179
:1006A000400028BF40F00040704712F100723CBF8C
:1006B00000F50000704700F0004343F0FE4040F4B6
:1006C000000070477FEA226216BF08467FEA236374
:1006D0000146420206BF5FEA412390EA010F40F45F
:1006E000800070474FF0000304E000BF10F00043AB
:1006F00048BF40425FEA000C08BF704743F0964392
:1007000001464FF000001CE050EA010208BF7047AC
:100710004FF000030AE000BF50EA010208BF704733
:1007200011F0004302D5404261EB41015FEA010C48
:1007300002BF84460146002043F0B64308BFA3F140
:100740008053A3F50003BCFA8CF2083AA3EBC25322
:1007500010DB01FA02FC634400FA02FCC2F1200241
:10076000BCF1004F20FA02F243EB020008BF20F078
:100770000100704702F1200201FA02FCC2F12002DE
:1007800050EA4C0021FA02F243EB020008BF20EAD3
:10079000DC70704753B94AB9002908BF00281CBF54
:1007A0004FF0FF314FF0FF3000F00CB8ADF1080C06
:1007B0006DE904CE06F0F4FCDDF804E0DDE9022387
:1007C00004B07047704700BF844641EA000313F04D
:1007D00003036DD1403A41D351F8043B40F8043B48
:1007E00051F8043B40F8043B51F8043B40F8043B0B
:1007F00051F8043B40F8043B51F8043B40F8043BFB
:1008000051F8043B40F8043B51F8043B40F8043BEA
:1008100051F8043B40F8043B51F8043B40F8043BDA
:1008200051F8043B40F8043B51F8043B40F8043BCA
:1008300051F8043B40F8043B51F8043B40F8043BBA
:1008400051F8043B40F8043B51F8043B40F8043BAA
:1008500051F8043B40F8043B403ABDD2303211D34A
:1008600051F8043B40F8043B51F8043B40F8043B8A
:1008700051F8043B40F8043B51F8043B40F8043B7A
:10088000103AEDD20C3205D351F8043B40F8043B4A
:10089000043AF9D2043208D0D2071CBF11F8013B48
:1008A00000F8013B01D30B8803806046704700BF0E
:1008B000082A13D38B078DD010F003038AD0C3F11D
:1008C0000403D21ADB071CBF11F8013B00F8013BFF
:1008D00080D331F8023B20F8023B7BE7043AD9D3BE
:1008E000013A11F8013B00F8013BF9D20B78037093
:1008F0004B7843708B78837060467047000000002F
:1009000030B490F800F020F007016FF0000C10F008
:10091000070491F820F040F048804FF000046FF099
:100920000700D1E9002391F840F000F1080082FAB5
:100930004CF2A4FA8CF283FA4CF3A2FA8CF34BBB80
:10094000D1E9022382FA4CF200F10800A4FA8CF2F9
:1009500083FA4CF3A2FA8CF3E3B9D1E9042382FAC7
:100960004CF200F10800A4FA8CF283FA4CF3A2FADC
:100970008CF37BB9D1E9062301F1200182FA4CF214
:1009800000F10800A4FA8CF283FA4CF3A2FA8CF37B
:10099000002BC6D0002A04BF04301A4612BAB2FA9D
:1009A00082F200EBD20030BC7047D1E9002304F0A2
:1009B0000305C4F100004FEAC50514F0040F91F8D7
:1009C00040F00CFA05F562EA05021CBF63EA050374
:1009D00062464FF00004AAE700000000000000009B
:1009E00001F0FF01102A2BDB10F0070F08D010F8E0
:1009F000013B013A8B422DD010F0070F42B3F6D1E4
:100A0000F0B441EA012141EA014122F007047FF0FC
:100A100000070023F0E80256083C85EA010586EA53
:100A2000010685FA47F5A3FA87F586FA47F6A5FA8F
:100A300087F68EB9EED1F0BC01F0FF0102F007029B
:100A400032B110F8013B013A83EA010313B1F8D146
:100A50000020704701387047002D06BF3546033827
:100A6000073815F0010F07D1013015F4807F02BF60
:100A7000013015F4C03F0130F0BC0138704700BFB1
:100A800070B54FF0FF0C4CF4E06C1CEA11541DBF24
:100A90001CEA135594EA0C0F95EA0C0F00F0DEF8EF
:100AA0002C4481EA030621EA4C5123EA4C5350EAD4
:100AB000013518BF52EA033541F4801143F4801325
:100AC00038D0A0FB02CE4FF00005E1FB02E506F0B6
:100AD0000042E0FB03E54FF00006E1FB03569CF00B
:100AE000000F18BF4EF0010EA4F1FF04B6F5007F11
:100AF00064F5407404D25FEA4E0E6D4146EB060683
:100B000042EAC62141EA55514FEAC52040EA5E500B
:100B10004FEACE2EB4F1FD0C88BFBCF5E06F1ED8B5
:100B2000BEF1004F08BF5FEA500E50F1000041EBEC
:100B3000045170BD06F0004646EA010140EA020099
:100B400081EA0301B4EB5C04C2BFD4EB0C0541EABB
:100B5000045170BD41F480114FF0000E013C00F3D0
:100B6000AB8014F1360FDEBF002001F0004170BDF4
:100B7000C4F10004203C35DA0C341BDC04F114040D
:100B8000C4F1200500FA05F320FA04F001FA05F299
:100B900040EA020001F0004221F0004110EBD37066
:100BA00021FA04F642EB06015EEA430E08BF20EA92
:100BB000D37070BDC4F10C04C4F1200500FA04F335
:100BC00020FA05F001FA04F240EA020001F00041C7
:100BD00010EBD37041F100015EEA430E08BF20EA3A
:100BE000D37070BDC4F1200500FA05F24EEA020E82
:100BF00020FA04F301FA05F243EA020321FA04F0B1
:100C000001F0004121FA04F220EA020000EBD37067
:100C10005EEA430E08BF20EAD37070BD94F0000F67
:100C20000FD101F00046400041EB010111F4801F9B
:100C300008BF013CF7D041EA060195F0000F18BF4C
:100C4000704703F00046520043EB030313F4801F88
:100C500008BF013DF7D043EA0603704794EA0C0F42
:100C60000CEA135518BF95EA0C0F0CD050EA410658
:100C700018BF52EA4306D1D181EA030101F00041D5
:100C80004FF0000070BD50EA410606BF10461946FD
:100C900052EA430619D094EA0C0F02D150EA013609
:100CA00013D195EA0C0F05D152EA03361CBF10464A
:100CB00019460AD181EA030101F0004141F0FE41E9
:100CC00041F470014FF0000070BD41F0FE4141F46D
:100CD000780170BD70B54FF0FF0C4CF4E06C1CEA6D
:100CE00011541DBF1CEA135594EA0C0F95EA0C0F22
:100CF00000F0A7F8A4EB050481EA030E52EA0335DD
:100D00004FEA013100F088804FEA03334FF08055FD
:100D100045EA131343EA12634FEA022245EA11152A
:100D200045EA10654FEA00260EF000419D4208BFDB
:100D3000964244F1FD0404F5407402D25B084FEA88
:100D40003202B61A65EB03055B084FEA32024FF434
:100D500080104FF4002CB6EB020E75EB030E22BF91
:100D6000B61A754640EA0C005B084FEA3202B6EB51
:100D7000020E75EB030E22BFB61A754640EA5C0000
:100D80005B084FEA3202B6EB020E75EB030E22BF90
:100D9000B61A754640EA9C005B084FEA3202B6EB91
:100DA000020E75EB030E22BFB61A754640EADC0050
:100DB00055EA060E18D04FEA051545EA16754FEAB2
:100DC00006164FEAC30343EA52734FEAC2025FEAD0
:100DD0001C1CC0D111F4801F0BD141EA00014FF05F
:100DE00000004FF0004CB6E711F4801F04BF014330
:100DF0000020B4F1FD0C88BFBCF5E06F3FF6AFAE4C
:100E0000B5EB030C04BFB6EB020C5FEA500C50F1DB
:100E1000000041EB045170BD0EF0004E4EEA11315E
:100E200014EB5C04C2BFD4EB0C0541EA045170BD65
:100E300041F480114FF0000E013C90E645EA060EA9
:100E40008DE60CEA135594EA0C0F08BF95EA0C0FD7
:100E50003FF43BAF94EA0C0F0AD150EA01347FF41F
:100E600034AF95EA0C0F7FF425AF104619462CE7F6
:100E700095EA0C0F06D152EA03353FF4FDAE104659
:100E8000194622E750EA410618BF52EA43067FF4AA
:100E9000C5AE50EA41047FF40DAF52EA43057FF43A
:100EA000EBAE12E74FF0FF3C06E000BF4FF0010C45
:100EB00002E000BF4FF0010C4DF804CD4FEA410CA9
:100EC0007FEA6C5C4FEA430C18BF7FEA6C5C1BD076
:100ED00001B050EA410C0CBF52EA430C91EA030FF7
:100EE00002BF90EA020F0020704710F1000F91EA54
:100EF000030F58BF994208BF90422CBFD8176FEA22
:100F0000E37040F0010070474FEA410C7FEA6C5CEF
:100F100002D150EA013C07D14FEA430C7FEA6C5CF6
:100F2000D6D152EA033CD3D05DF8040B704700BF22
:100F30008446104662468C461946634600E000BF70
:100F400001B5FFF7B7FF002848BF10F1000F01BD42
:100F50004DF808EDFFF7F4FF0CBF012000205DF80D
:100F600008FB00BF4DF808EDFFF7EAFF34BF012092
:100F700000205DF808FB00BF4DF808EDFFF7E0FF2B
:100F800094BF012000205DF808FB00BF4DF808ED7C
:100F9000FFF7CEFF94BF012000205DF808FB00BFE3
:100FA0004DF808EDFFF7C4FF34BF012000205DF8C5
:100FB00008FB00BF4FEA410C7FEA6C5C02D150EAAB
:100FC000013C0AD14FEA430C7FEA6C5C02D152EA41
:100FD000033C02D14FF0000070474FF00100704712
:100FE0004FEA410212F5001215D211D56FF4787351
:100FF000B3EB625212D94FEAC12343F0004343EAF4
:10100000505311F0004F23FA02F018BF40427047CE
:101010004FF00000704750EA013005D111F0004058
:1010200008BF6FF0004070474FF00000704700BFEE
:1010300010B5054C237833B9044B13B10448AFF312
:1010400000800123237010BD08080020000000006C
:10105000B0D3000808B5034B1BB103490348AFF3F5
:10106000008008BD000000000C080020B0D300087C
:10107000002303614361704790ED047AD0ED057A57
:1010800077EE806AB6EE006A66EE866A86EE816A60
:1010900037EE067A80ED047A70EE676A80ED050A15
:1010A000D0ED007A67EE807A90ED016A27EE067A3D
:1010B00077EE877A90ED027A27EE267A77EE877AB6
:1010C00090ED030A20EE200A37EE800A704708B53B
:1010D0002DED028BB0EEE08AF0EE400AB0EE480A49
:1010E0000CF02CF9F1EE480A0CF00AF9BDEC028B79
:1010F00008BD0000DFED067A20EE270AB3EE047A81
:10110000C0EE077AFDEEE77A17EE903A18B2704714
:101110000000804608B500220262002280F82420E8
:10112000FFF7A6FF08BD70B506460D46002407E090
:101130002C2000FB04600430FFF7ECFF0134E4B224
:10114000AC42F5D370BD00002DE9F04F2DED028BC0
:1011500089B007468846F0EE408A91460023069300
:101160000793049305931C469A469B4629E04748FB
:1011700006F05EFA23E096ED090A4BE0DDED017A18
:1011800038EE670A39E0DDED027A38EE670A34E0BE
:10119000082140FA01F13278013A03EB4202203291
:1011A0006A4402F8081C0133DBB2012B05D8002B7E
:1011B000EED00021EDE70023F7E74FF0010B0134FB
:1011C000E4B2444547D22C2504FB05F57E1996F878
:1011D0002830002BF3D03146684600F091FA7B5D51
:1011E000002BC4D0337F022BC5D096ED098A002B8B
:1011F000C4D0012BC7D09FED260AB37F1BB9D6ED13
:10120000080AFFF764FFB0EE681AF0EE480A301DD6
:10121000FFF732FFF3EE040AFFF759FFFFF76AFF0B
:101220007B5D042BC7D900230CE0082140FA01F1B3
:101230003278053A03EB420220326A4402F8101C6D
:101240000133DBB2012B03D8002BEED00021EDE7F8
:101250004FF0010AB3E7BBF1000F07D1BAF1000F5D
:101260000CD109B0BDEC028BBDE8F08F082306AAB3
:101270004FF40071484600F0ABF8EFE7082304AAEA
:1012800040F2FF11484600F0A3F8EAE7C8D300088F
:101290000000000070B584B006460D460D4806F00B
:1012A00027FA002484B9AC420CD22C2101FB046142
:1012B000684600F025FA9DF80130002BF1D001348A
:1012C000E4B2F0E70124EDE7034806F011FA04B0B8
:1012D00070BD00BFE4D3000804D4000880ED090A03
:1012E0007047012380F82830704710B500F500548E
:1012F00064684FEA041C00EB041ECEF8043040F88A
:101300000C10002108E012F801E000EB041C8C44F2
:101310008CF808E00131C9B29942F4D300F50053CA
:101320001B7A012B0AD00134C4F3080400F50053E2
:101330005C601B689C4209D0002010BD00F5005283
:1013400013680133C3F308031360ECE700F50050A2
:1013500001230372F0E730B589B005460C4600233F
:10136000059304938DF81C301DE004F500531B68B1
:101370001A0104EB03135B680693A358029300233E
:101380000393083201AB224402A9284601F0F6F883
:101390000346C8B904F5005213680133C3F30803C8
:1013A000136000231372284601F05DF958B104F56B
:1013B00000531B7A002BD8D104F5005211685268F3
:1013C0009142D2D100E00023184609B030BD0000A0
:1013D0002DE9F84F82460D46164699464FEAD30846
:1013E00003F0070B002401E00134E4B244450ED2BF
:1013F000082306EBC40229461248FFF776FF07468A
:101400000028F1D000F0FCFA3846BDE8F88FBBF1B7
:10141000000F09D029F007025B46324429460948EB
:10142000FFF763FF074648B906495046FFF793FFA9
:1014300007460028E8D000F0E3FAE5E700F0E0FA1C
:10144000E2E700BF4809002008B5044B1B6883424F
:1014500000D008BD0249FFF77EFFFAE754290020BB
:101460004809002008B5044B1B68834200D008BD22
:101470000249FFF770FFFAE75429002048090020CD
:101480004B1EDBB2082B64D810B5324C4A01A35C6A
:101490000133DBB2A354802B03D9134622468024A8
:1014A000D4544B012B4AD35C132B2DD9294B03EB7E
:1014B0004113B3F810C0A3F814C00478427842EA8C
:1014C00004221A8290F802E0C47844EA0E24DC82F6
:1014D0000479407940EA04201883A2EB0C02B2F5AB
:1014E000805F1FDD1A469B68D2681B48824208BF96
:1014F00013F1CC3F15D0174800EB4111013B42F1ED
:10150000FF328B60CA600CE00378427842EA032223
:10151000104B03EB41135A820178427842EA0122D0
:101520009A8210BD12F5805FFBDA0A4A02EB411283
:101530009368D2680948824208BFB3F1CC3FF0D02B
:10154000044800EB4111013342F100028B60CA6094
:10155000E7E7704728080020333333F3CCCCCC0CBA
:101560000F4B1B68834200D0704700B58BB001ABB6
:1015700003AA012101F090F838B90399A1F500738D
:10158000082B08D90BB05DF804FB064806F050F8AC
:1015900000F036FAF1E7C9B201A8FFF771FFF1E7F1
:1015A000542900201CD4000810B58AB004464C4BC6
:1015B00018600022069201230793049308930E23D8
:1015C00009930A2305934FF482430093454B0293FA
:1015D00001924FF6FF730393694600F003FF002862
:1015E00043D10B23059344F2200300933E4B029317
:1015F000002301934FF6FF7303936946204600F0E2
:10160000F1FE002834D10C23059344F240030093EB
:10161000364B0293002301934FF6FF730393694601
:10162000204600F0DFFE30BB0D2305934FF48143CD
:1016300000932C4B0293002301934FF6FF73039307
:101640006946204600F0CEFEC0B9204600F068FF93
:10165000B8B91021204601F0C4F8C0B901212046D4
:1016600001F0BFF8C8B9002330E000F0C9F9B8E7CD
:1016700000F0C6F9C7E700F0C3F9D5E700F0C0F9FC
:10168000E3E71B4806F034F800F0BAF9E1E719483F
:1016900005F0CEFF00F0B4F9E0E7174805F0C8FF09
:1016A00000F0AEF9DFE715484FEA431C00EB4312A8
:1016B0000021118291829FED087B82ED027BD18215
:1016C000118300F80C1051820133DBB2082BEAD9E8
:1016D0000AB010BDAFF30080000000000000000061
:1016E00054290020E0FF010020FF010060FF0100FD
:1016F00034D4000850D4000874D40008280800200E
:1017000038B52DED028B04460878082800D9002052
:1017100020700546364B03EB40131A8A5B8AD31AB6
:101720001BB2497F012947D007EE902AB8EE678A9D
:10173000DFED308A28EE288ADFED2F7A28EE278A1F
:101740002B4B03EB4013D3E90201FEF7E5FF07EE55
:10175000900A67EEA87A38EE278A84ED018A244A37
:10176000690102EB4515B5F9163007EE903AF8EE2F
:10177000E77A9FED227A67EE877ADFED216A87EEBE
:10178000A67A84ED027AB5F9183003EB83039B0047
:1017900007EE903AF8EEE77A9FED1A7A67EE877ACD
:1017A000C4ED037A535C142B94BF002301236370B0
:1017B0002046BDEC028B38BD07EE903AB8EEE78AC2
:1017C000DFED0C8A28EE288ADFED0B7A28EE278AD7
:1017D000074B03EB4013D3E90201FEF79DFF07EE31
:1017E000900A67EEA87A38EE278A84ED018AB6E778
:1017F00028080020D00FC94000000039D80F494008
:101800000000704200008038F0B58DB000240794CD
:10181000089409940A940B94364B1A6B42F0040214
:101820001A631A6B02F004020192019A1A6B42F0D9
:1018300080021A631A6B02F080020292029A1A6BFB
:1018400042F001021A631A6B02F001020392039A3A
:101850001A6B42F002021A631A6B02F0020204923F
:10186000049A1A6B42F008021A631A6B02F008021B
:101870000592059A1A6B42F040021A631B6B03F043
:1018800040030693069B1C4F224644F281013846D2
:1018900001F098FE194D22464021284601F092FEA3
:1018A0004FF4005307934FF488130893099407A942
:1018B000134801F085FD44F2810307930126089641
:1018C00009940A9407A9384601F07AFD402307934A
:1018D000089609940A9407A9284601F071FD80230F
:1018E00007930894099407A9284601F069FD0DB0F3
:1018F000F0BD00BF00380240000402400018024062
:101900000008024000B583B00A4B1A6B42F4001283
:101910001A631B6B03F400130193019B0022052142
:101920000E2001F0E3F80E2001F0F0F803B05DF8AE
:1019300004FB00BF0038024000B589B00E4904A87E
:10194000FFF7DEFE0798FEF7BFFD04460D4606983A
:10195000FEF7BAFDCDE902010598FEF7B5FDCDE928
:10196000000122462B46054805F062FE4FF4C87080
:1019700003F0FAFCE2E700BF6029002090D40008E1
:1019800008B5044A9FED040A01210448FFF7DCFB77
:1019900008BD00BFF039002000007A446029002013
:1019A00000B583B08DF807004FF4FA7301220DF1F2
:1019B0000701044803F08FF99DF8070003B05DF8B4
:1019C00004FB00BFB838002008B5FFF73DFD08BD97
:1019D00008B5FFF747FD08BD08B5FFF735FD08BDA1
:1019E00008B5FFF73FFD08BD08B5FFF72DFD08BDA1
:1019F00008B5FFF737FD08BD08B5FFF7B1FD08BD15
:101A000072B6FEE708B50D480D4B03600323436033
:101A100000238360C3604FF4003202614FF4401230
:101A200042610376012242768376C3760377437759
:101A300000F032FC00B908BDFFF7E2FFF0390020EA
:101A40000064004010B51448144B0360144B00228E
:101A50001A7080215970E1219970DA701A715A71E7
:101A600043604FF4000383600E4BC3600E4B036171
:101A700040F2F453436101F045FC58B90B4C382255
:101A80000021204605F084FE212323604FF440030B
:101A9000636110BDFFF7B4FF4039002000800240B1
:101AA00058290020C406002064070020183A0020AE
:101AB00008B50B480B4B03604FF4E1334360002340
:101AC0008360C36003610C2242618361C36103626E
:101AD000436203F098F900B908BDFFF791FF00BF1A
:101AE000B83800200048004008B50B484FF0A0432C
:101AF0000360062343600222C26000230361826107
:101B00000122C26103624362C262036301F060FDAD
:101B100000B908BDFFF774FF5033002000B595B041
:101B20003422002107A805F033FE0023029303931B
:101B300004930593069301F0FDFD234B1A6C42F0CC
:101B400080521A641B6C03F080530093009B1F4A61
:101B5000136823F4404343F480431360136803F491
:101B600040430193019B012307934FF4A023089363
:101B700002230D934FF480020E9204220F926021F3
:101B8000109111931292139307A801F019FEA0B9B6
:101B900001F0D8FD98B90F23029302230393002389
:101BA00004934FF4A05205920693032102A802F079
:101BB00097F830B915B05DF804FBFFF721FFFFF788
:101BC0001FFFFFF71DFF00BF0038024000700040FC
:101BD00010B500F02FFBFFF7A1FFFFF715FEFFF791
:101BE00091FEFFF70FFFFFF72DFFFFF761FFFFF7F4
:101BF0007BFF2D48FFF7D8FC08212C48FFF793FA0C
:101C00000022002A04DD642000F032FB00241FE0E3
:101C1000541C26482C2102FB01F143184454002196
:101C2000997701215977224818621977214959601B
:101C3000214999600021D96019612246E1E79FEDB1
:101C40001F0A2C20194B00FB0430FFF747FB01341F
:101C5000002CF4DD642000F00BFB01211348FFF79A
:101C600019FB0024002C16DD03F0D0FA144B0022DF
:101C70000121144803F096FB134B1860012103F077
:101C8000E9FB124A0021124803F002FB114B1860D5
:101C900003F0DAFAFEE72C20044B00FB0430FFF7D8
:101CA00020FB0134DEE700BFF0390020602900206E
:101CB00000004040CDCCCC3E0AD7A33DD80F4940D0
:101CC0001CD6000881190008EC2A00202CD6000838
:101CD000391900084C33002000B583B00D4B1A6C45
:101CE00042F080521A641A6C02F080520092009AFC
:101CF0005A6C42F480425A645B6C03F48043019353
:101D0000019B00220F216FF0010000F0EFFE03B0F5
:101D10005DF804FB0038024000B589B0002303934E
:101D2000049305930693079302681F4B9A4202D0CF
:101D300009B05DF804FB03F5EA331A6C42F0007257
:101D40001A641A6C02F000720192019A1A6B42F046
:101D500008021A631B6B03F008030293029B032320
:101D600003930222049206930923079303A90F48C1
:101D700001F026FB00220521132000F0B7FE1320FE
:101D800000F0C4FE00220521142000F0AFFE142054
:101D900000F0BCFE00220521152000F0A7FE152052
:101DA00000F0B4FEC4E700BF00640040000C024035
:101DB000F0B58DB000230793089309930A930B9312
:101DC00002683A4B9A4201D00DB0F0BDA3F59043A2
:101DD0001A6B42F000721A631A6B02F000720092E2
:101DE000009A1A6B42F080621A631A6B02F08062EA
:101DF0000192019A1A6B42F000621A631A6B02F0A8
:101E000000620292029A1A6B42F004021A631A6B81
:101E100002F004020392039A1A6B42F001021A6361
:101E20001A6B02F001020492049A1A6B42F0020249
:101E30001A631A6B02F002020592059A1A6B42F0BD
:101E400040021A631B6B03F040030693069B322388
:101E500007930226089603250A950B240B9407A9DD
:101E6000134801F0ADFA86230793089600270997D7
:101E70000A950B9407A90F4801F0A2FA4FF40053FA
:101E80000793089609970A950B9407A90A4801F049
:101E900097FA4FF420530793089609970A950B94E5
:101EA00007A9064801F08CFA8EE700BF00800240C7
:101EB00000080240000002400004024000180240F6
:101EC00030B5ADB0044600212791289129912A917F
:101ED0002B91902203A805F05BFC22682B4B9A42C1
:101EE00001D02DB030BD4FF48073039303A801F0EF
:101EF000D3FF002843D1264B1A6C42F480221A6487
:101F00001A6C02F480220192019A1A6B42F00802C4
:101F10001A631B6B03F008030293029B4FF4407398
:101F20002793022328930025299503232A93072327
:101F30002B9327A9174801F043FA1748174B036062
:101F40004FF00063436040238360C5604FF48063BB
:101F50000361456185614FF48073C3610562456229
:101F600000F05CFE70B90C4B23679C6300220521D6
:101F7000272000F0BBFD272000F0C8FDB1E7FFF7E8
:101F80003FFDB8E7FFF73CFDEDE700BF004800402C
:101F900000380240000C02405838002058600240CF
:101FA00070B5ACB0044600212791289129912A915F
:101FB0002B91902203A805F0EBFB2368B3F1A04F0F
:101FC00001D02CB070BD4FF40013039303A801F0AF
:101FD00063FF002835D11C4C236B43F001032363BE
:101FE000236B03F001030093009B4FF4E853279306
:101FF000022328930025299503232A930A232B9350
:10200000124E27A9304601F0DBF94FF400732793F5
:102010002895299527A9304601F0D2F9636B43F042
:1020200080036363636B03F080030193019B636C24
:1020300043F480436364636C03F480430293029B24
:10204000BFE7FFF7DDFCC6E70038024000000240B2
:10205000FEE7FEE7FEE7FEE7FEE7704708B500F0A3
:10206000F5F804F07FFD012800D108BD03F05AFB0C
:10207000FBE7000008B5024800F094FE08BD00BF71
:102080005838002008B5024800F0C3FB08BD00BF67
:10209000F039002008B5024800F0BBFB08BD00BFC6
:1020A000F039002008B5024800F0B3FB08BD00BFBE
:1020B000F039002008B5024802F036FA08BD00BF2A
:1020C000B83800200120704708B505F007FC16233A
:1020D00003604FF0FF3008BD08B54FF0FF31FFF748
:1020E000F3FFFEE770B50C461646002506E0AFF399
:1020F0000080214601F8010B01350C46B542F6DBA4
:10210000304670BD70B50C461646002504E014F844
:10211000010BFFF745FC0135B542F8DB304670BDD9
:102120004FF0FF3070474FF400534B600020704772
:10213000012070470020704710B503460C4A0D4936
:102140000D48006840B10C4800680344521A93429D
:1021500006D8094A136010BD0748084C0460F2E72E
:1021600005F0BCFB0C2303604FF0FF30F3E700BF2A
:102170000000082000040000503A0020B88600202B
:10218000034AD2F8883043F47003C2F888307047AD
:1021900000ED00E0DFF834D00D480E490E4A002370
:1021A00002E0D458C4500433C4188C42F9D30B4A0B
:1021B0000B4C002301E013600432A242FBD3FFF773
:1021C000DFFF05F091FBFFF703FD704700000820DB
:1021D00000000020C4060020C8D80008080800201D
:1021E000B4860020FEE7000010B504460E4B1A78B6
:1021F0004FF47A73B3FBF2F30C4A1068B0FBF3F0C0
:1022000000F092FC68B90F2C01D901200AE00022ED
:1022100021464FF0FF3000F069FC054B1C600020A8
:1022200000E0012010BD00BF0400002000000020DD
:102230000800002008B5032000F046FC0F20FFF73F
:10224000D3FFFFF749FD002008BD0000034A1168D5
:10225000034B1B780B441360704700BF543A0020B7
:1022600004000020014B1868704700BF543A00205A
:1022700038B50446FFF7F6FF0546B4F1FF3F02D03C
:10228000044B1B781C44FFF7EDFF401BA042FAD320
:1022900038BD00BF04000020002800F0A18038B540
:1022A000044690F82030D3B12268136843F001034C
:1022B0001360FFF7D7FF054623685A6812F0010F35
:1022C00010D1FFF7CFFF401B0A28F5D9636A43F40A
:1022D00000336362052384F82030012038BDFFF706
:1022E0001BFDE1E71A6822F002021A60FFF7BAFF4D
:1022F000054623685A6812F0020F0DD0FFF7B2FFAF
:10230000401B0A28F5D9636A43F40033636205234E
:1023100084F820300120E1E7227E012A3DD01A68AE
:1023200022F080021A60637E012B3BD02268136882
:1023300023F040031360A37E012B39D02268136879
:1023400023F020031360E37E012B37D0226813684B
:1023500043F010031360237F012B35D022681368EC
:1023600023F008031360637F012B33D022681368C6
:1023700023F004031360A368E26813432269134344
:10238000626913436268013A21681343CB610020FC
:102390006062012384F82030A0E71A6842F08002CE
:1023A0001A60C0E72268136843F040031360C2E775
:1023B0002268136843F020031360C4E7226813689F
:1023C00023F010031360C6E72268136843F0080384
:1023D0001360C8E72268136843F004031360CAE778
:1023E00001207047036890F82020013AD2B2012AF8
:1023F00005D9436A43F4802343620120704730B417
:10240000454A934200D0454BD3F8002242F00102E6
:10241000C3F80022414A934247D04A6902F01F02A2
:10242000012000FA02F2D3F81C026FEA020C20EA43
:102430000200C3F81C02C869B0B9D3F80C020CEA58
:102440000000C3F80C028C884869CD6844EA054452
:10245000483043F830400C8848698D6844EA0544A8
:10246000483003EBC0004460C86901282BD088695C
:1024700000283FD1D3F804020CEA0000C3F804029C
:10248000086900283CD1D3F814020CEA0000C3F814
:102490001402096A012939D0D3F8002222F001027E
:1024A000C3F80022002030BC7047D3F8002222F489
:1024B0007C52C3F80022D3F80022486A42EA002284
:1024C000C3F80022A9E7D3F80C021043C3F80C02AA
:1024D0008C8848690D6844EA0544483043F8304028
:1024E0008C8948698D6844EA0544483003EBC00094
:1024F0004460BCE7D3F804021043C3F80402BFE70A
:10250000D3F814021043C3F81402C2E7D3F81C1224
:102510000A43C3F81C22BFE70034004000640040B7
:1025200070B5044690F82050EDB2012D06D0436AF4
:1025300043F4002343620125284670BD022380F83E
:1025400020300268136823F001031360FFF78AFE4E
:10255000064623685B6813F0010F0CD0FFF782FE7C
:10256000831B0A2BF5D9636A43F4003363620523A6
:1025700084F82030E0E700256562DDE730B590F8AB
:1025800020C00468A4680CF1FF3C5FFA8CFCBCF12D
:10259000010F62D814F0E05F59D0C4F3016C01243C
:1025A00004FA0CF41C608B68002B3DD10D68CB68DD
:1025B000046843EA45550CF118031B01E550036814
:1025C0000C690CF1180E03EB0E135C600B7D012BF4
:1025D00035D0D17993791B0443EA0163517943EAF9
:1025E000012314790168234301EB0C11C1F88C31EC
:1025F000D17893781B0443EA0163517843EA0123BD
:10260000117802680B4302EB0C12C2F888310268A1
:102610000CF1180C4FEA0C1C52F80C3043F001037B
:1026200042F80C3000201DE04C6843EAC403CC683B
:1026300023430CF11804240105682B51BFE70368FC
:1026400003EB0E13596841F480715960C1E7436A86
:1026500043F400134362012004E0436A43F48023FF
:102660004362012030BD90F82030013BDBB2012BEA
:1026700001D9002070470368986810F0806000D08E
:1026800001209A6812F0006F00D001309B6813F0AF
:10269000805FEFD00130704790F820C00CF1FF3C14
:1026A0005FFA8CFCBCF1010F00F2958030B451B997
:1026B0000468E46814F0030F10D1436A43F4001374
:1026C0004362012077E00468246914F0030F05D108
:1026D000436A43F40013436201206CE001F11B04E0
:1026E000240105682C5904F004049460002C64D182
:1026F00001F11B04240105682C59640D1460046861
:1027000001F11B0C4FEA0C1C54F80C4004F00204BD
:10271000D46004686444646804F00F0414610468BD
:1027200064446468C4F3072494610468644464687E
:10273000240C5461026802EB0112D2F8B8211A701D
:10274000026802EB0112D2F8B821C2F307225A70D4
:10275000026802EB0112D2F8B821C2F307429A7064
:10276000026802EB0112D2F8B821120EDA70026888
:1027700002EB0112D2F8BC211A71026802EB0112BD
:10278000D2F8BC21C2F307225A71026802EB01128F
:10279000D2F8BC21C2F307429A71026802EB01121F
:1027A000D2F8BC21120EDA7179B90268D36843F00D
:1027B0002003D360002030BC704701F11B042401CA
:1027C00005682C59E408546099E70268136943F0DE
:1027D00020031361EEE7436A43F480234362012040
:1027E000704790F82030013BDBB2012B05D9436ADA
:1027F00043F48023436201207047026853690B430E
:1028000053610020704770477047704770477047AA
:1028100070472DE9F84F054603685C69D3F80480DA
:102820009F68D3F80CA0D3F81090D3F818B014F028
:1028300001063BD017F0010616D001229A6017F06E
:10284000020F08D117F0040F0CD117F0080606D0BC
:102850004FF4805608E0FFF7B7F8002604E0FFF7D2
:10286000B7F801E04FF4006617F4807F0DD02B68B5
:102870004FF480729A6017F4007F40F0968017F44E
:10288000806F00F0968046F4005617F4803F0DD01C
:102890002B684FF480329A6017F4003F40F0938029
:1028A00017F4802F00F0938046F4004614F0080FD0
:1028B00007D01AF0100F04D046F400762B681022CF
:1028C000DA6014F0040F03D01AF0080F40F089808A
:1028D00014F0020F05D02B68DB6813F0030F40F0F3
:1028E000878014F0400F07D019F0100F04D046F481
:1028F00080662B6810221A6114F0200F02D019F0A4
:10290000080F79D114F0100F04D02B681B6913F055
:10291000030F78D114F4003F02D018F0100F76D1D5
:1029200014F4803F02D018F0080F77D114F4004F50
:1029300037D018F0040F31D014F4807F04D01BF08E
:10294000010F01D046F0010614F4007F04D01BF003
:10295000020F01D046F0020614F4806F04D01BF081
:10296000040F01D046F0040614F4006F16D01BF0DB
:10297000700B13D0BBF1400F66D056D8BBF1200FBF
:102980005CD0BBF1300F5CD0BBF1100F01D146F031
:1029900008062A68936923F0700393612B68042268
:1029A0005A60002E56D1BDE8F88F2846FFF714F87C
:1029B0006BE717F4006F02D046F4804665E72846BF
:1029C000FFF70EF861E72846FFF70EF86EE717F4F9
:1029D000002F02D046F4803668E72846FFF708F853
:1029E00064E72B680822DA602846FFF70DFF6FE7DF
:1029F0002846FFF708FF74E72B6808221A6128466B
:102A0000FFF703FF7EE72846FEF7F6FF82E72B6815
:102A100010225A602846FFF7F9FE81E72B6808224A
:102A20005A602846FFF7F3FE80E7BBF1500F0ED047
:102A3000BBF1600FADD146F48076AAE746F01006F0
:102A4000A7E746F02006A4E746F04006A1E746F0D7
:102A500080069EE76B6A33436B622846FFF7D8FE19
:102A6000A1E70000002804DB0901C9B2044B195496
:102A7000704700F00F000901C9B2024B19547047AA
:102A800000E400E014ED00E000B500F00700C0F144
:102A9000070CBCF1040F28BF4FF0040C031D062BDC
:102AA0000FD9C31E4FF0FF3E0EFA0CF021EA0001D1
:102AB00099400EFA03FE22EA0E0241EA02005DF896
:102AC00004FB0023EEE700000649CB6823F4E06333
:102AD0001B041B0C000200F4E0600343024A1A438B
:102AE000CA60704700ED00E00000FA0510B504462A
:102AF000054BD868C0F30220FFF7C6FF0146204609
:102B0000FFF7B0FF10BD00BF00ED00E0002807DBBD
:102B100000F01F02400901239340024A42F820308E
:102B2000704700BF00E100E00138B0F1807F0BD2B8
:102B30004FF0E0235861054AF02182F8231000206D
:102B4000986107221A6170470120704700ED00E08C
:102B500010B40368D9B210390A4AA2FB0142120923
:102B6000094CA25CC2655F2907D96FF309030433DE
:102B70008365806D5DF8044B70476FF309038365CF
:102B8000F7E700BFABAAAAAA68D60008836A8269E1
:102B900092B9012B0AD0022B02D00BB10020704752
:102BA000C36A13F0807F28D100207047C36AB3F155
:102BB000C07F24D000207047B2F5005F09D0022BFF
:102BC00025D9032B25D1C36A13F0807F23D10020A0
:102BD0007047032B03D8DFE803F01404140A002025
:102BE0007047C36A13F0807F0DD100207047C36A1D
:102BF000B3F1C07F09D00020704701207047012049
:102C00007047012070470120704701207047012064
:102C100070470020704701207047000070B50446DF
:102C2000FFF720FB002C5BD00546022384F83530EB
:102C3000002384F834302268136823F00103136002
:102C400023681A6812F0010F0AD0FFF70BFB431B31
:102C5000052BF5D920236365032084F8350070BD6A
:102C60001A68204911406268A0680243E068024384
:102C70002069024360690243A0690243E06902439C
:102C8000206A02430A43616A04291ED01A6026683A
:102C9000756925F00705636A1D43042B07D1A36AF4
:102CA0001D43E36A1BB12046FFF770FF90B97561C1
:102CB0002046FFF74DFFE26D3F23934083600020E5
:102CC0006065012384F83530C9E7E16A206B014370
:102CD0000A43DBE740236365012084F83500BEE743
:102CE0000120BCE73F8010E070B50446866DFFF719
:102CF000B9FA94F83530DBB2022B06D08023636535
:102D0000002384F83430012070BD05462268136822
:102D100023F0160313602268536923F08003536184
:102D2000236CE3B12268136823F008031360226860
:102D3000136823F00103136023681B6813F0010F6D
:102D400011D0FFF78FFA431B052BF5D920236365BC
:102D5000032084F83500002384F83430D4E7A36CD2
:102D6000002BDFD1E3E7E26D3F239340B360012303
:102D700084F83530002084F83400C5E790F8353009
:102D8000DBB2022B03D0802343650120704705236B
:102D900080F835300268136823F0010313600020C7
:102DA00070470000F0B583B0044600230193724BD6
:102DB0001D68724BA3FB0535AD0A876D3E68C26D79
:102DC00008239340334210D003681A6812F0040FAE
:102DD0000BD01A6822F004021A60C26D08239340D7
:102DE000BB60436D43F001034365E26D01239340F3
:102DF000334209D02268526912F0800F04D0BB60C0
:102E0000636D43F002036365E26D04239340334234
:102E100009D02268126812F0020F04D0BB60636D03
:102E200043F004036365E26D10239340334224D0E2
:102E30002268126812F0080F1FD0BB6023681A685E
:102E400012F4802F0DD01B6813F4002F04D1236CD3
:102E50009BB12046984710E0A36C73B12046984779
:102E60000BE01A6812F4807F03D11A6822F008027E
:102E70001A60236C0BB120469847E26D20239340E3
:102E8000334255D02268126812F0100F50D0BB6048
:102E900094F83530DBB2052B0ED023681A6812F493
:102EA000802F33D01B6813F4002F2AD1636C002BC2
:102EB0003ED0204698473BE02268136823F0160373
:102EC00013602268536923F080035361236CA3B11C
:102ED0002268136823F008031360E26D3F239340D8
:102EE000BB60012384F83530002384F83430236D2F
:102EF000002B3FD0204698473CE0A36C002BE7D145
:102F0000EBE7E36BA3B12046984711E01A6812F48F
:102F1000807F09D11A6822F010021A60012384F818
:102F20003530002384F83430E36B0BB120469847EA
:102F3000636DFBB1636D13F0010F17D0052384F8A7
:102F400035302268136823F001031360019B0133BD
:102F50000193AB4204D823681B6813F0010FF5D12D
:102F6000012384F83530002384F83430E36C0BB14E
:102F70002046984703B0F0BD00000020B5814E1BED
:102F80005079137943EA002307480B50D07893789F
:102F90001B0443EA0063507843EA0023127813438A
:102FA000024A8B50704700BF40800240448002407C
:102FB00030B4002208E0C468DC6051F80C3043F4FF
:102FC000400341F80C300132032A1FD8C16802EBDC
:102FD00082034FEAC30C01EBC303002441F80C4009
:102FE0005C609C60DC60941D40F8243051F80C401B
:102FF00044F4801441F80C40022ADCD8541C04EB41
:103000008404C56805EBC404DC60D6E70023836252
:10301000C268036803F580531A6130BC704700B57D
:103020004FF0000E03E00269DA600EF1010EBEF10E
:10303000030F29D801690EEB8E034FEAC30C01EB95
:10304000C303002241F80C205A609A60DA601A62C9
:103050005A624FF0004241F80C2044F2F4525A6098
:103060005A6822F000425A600EF1120240F82230F3
:10307000BEF1020FD7D801690EF1010202EB820204
:1030800001EBC201D960D0E70023C3650366836604
:10309000C36683650269036803F58053DA605DF8EF
:1030A00004FB000070B505460C46026813683B49F6
:1030B0001940237C002B60D14FF40003607C002872
:1030C0005DD14FF480000343A0680343E07F43EAEF
:1030D000004360690343A07F002852D14FF40050A1
:1030E0000343207F43EA0033A0690343207943EA86
:1030F000802394F82000002845D14FF4007003434A
:10310000E07B43EAC013606A034394F8280043EA73
:1031100000130B4313602B681E680120FFF7A8F80B
:103120002B681E6029688A6922F0BE021204120C04
:10313000A36C1B0494F84C0038BB80200343206D23
:10314000034394F85500012821D00020034394F84C
:10315000560001281DD00020034394F85400012894
:1031600019D00020034313438B612B689C69012015
:10317000FFF77EF82B689C6170BD00239EE700205E
:10318000A1E70020ACE70020B9E70020D6E708203F
:10319000DCE70420E0E70220E4E700BF0F8120FF26
:1031A00070B505460C46026802F580539B692B49B1
:1031B0001940237B002B4DD14FF08063607B43EAA5
:1031C0004063607F002847D14FF480100343A07B09
:1031D00043EA405360690343207F43EAC013A07F62
:1031E00043EA8013206A034394F8240043EA8003EF
:1031F0000B4302F5805293612B6803F580539E695F
:103200000120FFF735F82B6803F580539E61227982
:10321000A36843EA4263A26913432269134394F803
:10322000252043EAC213A26A43EA820322681343B9
:103230002A6843F4000302F5805213602B6803F5FB
:1032400080531C680120FFF713F82B6803F58053A7
:103250001C6070BD0023B1E70020B7E7233FDEF814
:1032600070B5A4B0064601258DF83C508DF83D5050
:1032700000240D948DF84B408DF84A508DF848404D
:103280008DF830508DF84C408DF83B4014948DF8FB
:1032900054401D948DF878401F948DF882408DF82D
:1032A00080404FF4804310934FF4006311938DF8E6
:1032B00081400BA9FFF7F6FE8DF80C508DF80D50EC
:1032C0008DF81D508DF80E5005948DF81C408DF82A
:1032D0001E4008948DF824508DF804504FF480332C
:1032E00002934FF4800306934FF4005304938DF838
:1032F00025500A94009469463046FFF751FF24B0E8
:1033000070BD0000002855D030B583B00446D0F819
:103310008430002B32D0284B5A6C42F480425A64DD
:103320005B6C03F480430193019B244B5A6822F4A5
:1033300000025A605A68A1680A435A605B682368B1
:1033400003F580531A6842F001021A60FEF78AFF03
:103350000546236803F580531B6813F0010F13D053
:10336000FEF780FF401BB0F5FA7FF2D90423C4F8C2
:103370008830E023C4F88430012019E02323C0F80A
:103380008430FEF715FDC6E72046FFF769FF2046AB
:10339000FFF70EFE2046FFF742FE6268002120463E
:1033A000FFF7EEFD0020C4F888001023C4F8843035
:1033B00003B030BD012070470038024000380140A2
:1033C00000230F2B00F2F48070B582B066E08568B0
:1033D0004FEA430E032404FA0EF425EA0405CC68F0
:1033E00004FA0EF42C438460446824EA02044A6818
:1033F000C2F300129A40224342605DE0DC080834C8
:1034000050F8242003F00705AD004FF00F0E0EFA20
:1034100005FE22EA0E0E0A69AA4042EA0E0240F8B0
:1034200024205DE0092200E0002202FA0EF22A4385
:103430000234604D45F824205F4A94686FEA0C021C
:1034400024EA0C054E6816F4801F01D04CEA0405EE
:10345000594CA560E46802EA04054E6816F4001FA2
:1034600001D04CEA0405544CE560646802EA0405A6
:103470004E6816F4003F01D04CEA04054E4C6560DE
:10348000246822404D6815F4803F01D04CEA0402C4
:10349000494C226001330F2B00F2888001229A40B0
:1034A0000C6804EA020C32EA0404F3D14C6804F01C
:1034B0000304013C012C8AD94A6802F00302032A62
:1034C00009D0C4685D000322AA4024EA02048A6885
:1034D000AA402243C2604A6802F00302022A8DD049
:1034E00004684FEA430E032202FA0EF224EA0204B1
:1034F0004A6802F0030202FA0EF2224302604A68AE
:1035000012F4403FC6D02D4A546C44F480445464B5
:10351000526C02F480420192019A9C08A51C254A33
:1035200052F8255003F0030E4FEA8E0E0F2202FAD6
:103530000EF225EA0205224A90423FF475AF02F5E9
:103540008062904222D002F58062904220D002F543
:10355000806290421ED002F5806290421CD002F53B
:10356000806290421AD002F58062904218D002F533
:103570008062904216D002F58062904214D002F52B
:10358000806290423FF44EAF0A224EE701224CE7A0
:1035900002224AE7032248E7042246E7052244E7DD
:1035A000062242E7072240E708223EE702B070BD4C
:1035B000704700BF00380140003C01400038024025
:1035C000000002400AB181617047090481617047BF
:1035D00070B58AB0002800F097800546046890F81E
:1035E000BD343BB3032385F8BD34E36B13F4807F14
:1035F00001D100232B61286801F09CFC2C4654F873
:10360000106BEC460FCCACE80F000FCCACE80F0011
:1036100094E803008CE803002B1D0ECB304601F02C
:103620004BFC044658B1022385F8BD3401242046E2
:103630000AB070BD80F8BC34FEF7B2FCD2E70021BE
:10364000286801F0A9FD234616E003EBC30205EB51
:103650008202012182F83D1082F83C30A2F8443009
:10366000002182F840109164D16403EBC30205EBA2
:10367000820251650133DBB269688B42E5D316E003
:1036800004EBC40305EB8303002283F87D2283F857
:103690007C4283F88022C3F88822C3F88C2204EB92
:1036A000C40305EB8303C3F894220134E4B2A142BE
:1036B000E6D82C4654F8106BEC460FCCACE80F0063
:1036C0000FCCACE80F0094E803008CE803002B1D3E
:1036D0000ECB304601F08AFC044660B9002385F821
:1036E0003830012385F8BD346B6A012B08D0286877
:1036F00001F040FD9BE7022385F8BD34012496E7E5
:10370000284600F003F8F2E7012490E70346026838
:103710000121C0F80015002083F8F404936943F0F8
:1037200000639361516D024B0B435365704700BFBB
:1037300003000010024A136843F48073136070475B
:103740000070004010B582B01B4B1A6C42F08052E2
:103750001A641B6C03F080530193019B174A136892
:1037600043F480331360FEF77DFD0446134B5B6822
:1037700013F4803F08D1FEF775FD001BB0F57A7F8A
:10378000F4D9032002B010BD0C4A136843F400338F
:103790001360FEF767FD0446084B5B6813F4003FB7
:1037A00007D1FEF75FFD001BB0F57A7FF4D9032047
:1037B000E8E70020E6E700BF003802400070004064
:1037C000002800F0068270B582B00446036813F04A
:1037D000010F29D0954B9B6803F00C03042B1AD0E2
:1037E000924B9B6803F00C03082B0FD06368B3F572
:1037F000803F40D0002B54D18C4B1A6822F4803289
:103800001A601A6822F480221A6039E0874B5B68DC
:1038100013F4800FEAD0854B1B6813F4003F03D0EC
:103820006368002B00F0D781236813F0020F74D077
:103830007E4B9B6813F00C0F5ED07C4B9B6803F0B3
:103840000C03082B53D0E368002B00F08980774AE3
:10385000136843F001031360FEF704FD0546734B44
:103860001B6813F0020F72D1FEF7FCFC401B02280C
:10387000F5D90320B4E16D4A136843F48033136033
:1038800063682BB3FEF7EEFC0546684B1B6813F428
:10389000003FC9D1FEF7E6FC401B6428F5D90320A0
:1038A0009EE1B3F5A02F09D0604B1A6822F4803254
:1038B0001A601A6822F480221A60E1E75B4B1A68EA
:1038C00042F480221A601A6842F480321A60D7E704
:1038D000FEF7C8FC0546554B1B6813F4003FA3D008
:1038E000FEF7C0FC401B6428F5D9032078E14F4B5C
:1038F0005B6813F4800FA6D14C4B1B6813F0020FCA
:1039000003D0E368012B40F06881484A136823F034
:10391000F803216943EAC1031360236813F0080F19
:1039200046D0636983B3414A536F43F00103536741
:10393000FEF798FC05463D4B5B6F13F0020F37D145
:10394000FEF790FC401B0228F5D9032048E1374AD6
:10395000136823F0F803216943EAC1031360DCE72D
:10396000324A136823F001031360FEF77BFC05461F
:103970002E4B1B6813F0020FCFD0FEF773FC401BD9
:103980000228F5D903202BE1284A536F23F00103C5
:103990005367FEF767FC0546244B5B6F13F0020F7D
:1039A00006D0FEF75FFC401B0228F5D9032017E183
:1039B000236813F0040F7DD01C4B1B6C13F0805F49
:1039C0001ED11A4B1A6C42F080521A641B6C03F021
:1039D00080530193019B0125154B1B6813F4807FD5
:1039E00010D0A368012B25D0002B3BD10F4B1A6FB1
:1039F00022F001021A671A6F22F004021A671EE011
:103A00000025E9E70A4A136843F480731360FEF760
:103A100029FC0646064B1B6813F4807FE1D1FEF7B4
:103A200021FC801B6428F5D90320D9E0003802402E
:103A300000700040724A136F43F001031367A368DC
:103A400033B3FEF70FFC06466D4B1B6F13F0020FEE
:103A50002FD1FEF707FC801B41F288339842F3D93F
:103A60000320BDE0052B09D0654B1A6F22F001023F
:103A70001A671A6F22F004021A67E0E7604B1A6FA8
:103A800042F004021A671A6F42F001021A67D6E781
:103A9000FEF7E8FB06465A4B1B6F13F0020F08D0E7
:103AA000FEF7E0FB801B41F288339842F3D90320F4
:103AB00096E0FDB9A369002B00F09180504A92680E
:103AC00002F00C02082A59D0022B19D04C4A136874
:103AD00023F080731360FEF7C5FB0446484B1B6858
:103AE00013F0007F48D0FEF7BDFB001B0228F5D97C
:103AF000032075E0424A136C23F080531364D9E726
:103B00003F4A136823F080731360FEF7ABFB054652
:103B10003B4B1B6813F0007F06D0FEF7A3FB401B56
:103B20000228F5D903205BE0E369226A1343626A45
:103B300043EA8213A26A5208013A43EA0243E26A64
:103B400043EA0263226B43EA02732D4A536013680F
:103B500043F080731360FEF785FB0446284B1B6817
:103B600013F0007F06D1FEF77DFB001B0228F5D97C
:103B7000032035E0002033E0002031E0204A526885
:103B8000012B2FD002F48003E1698B422CD102F08B
:103B90003F03216A8B4229D1616A47F6C073134003
:103BA000B3EB811F24D102F44031A36A5B08013BCF
:103BB000B1EB034F1ED102F07063E16AB3EB016F0A
:103BC0001AD102F0E042236BB2EB037F16D1002042
:103BD00006E001207047012002E0012000E0002003
:103BE00002B070BD0120FBE70120F9E70120F7E7F3
:103BF0000120F5E70120F3E70120F1E70120EFE7DD
:103C00000038024008B5334B9B6803F00C03042BCB
:103C10005BD0082B5BD12F4B5A6802F03F025B68E8
:103C200013F4800F2CD02B4B5868C0F388104FEA48
:103C3000401CBCEB000C6EEB0E0E4FEA8E1343EAF9
:103C40009C634FEA8C11B1EB0C0163EB0E03DB00BC
:103C500043EA5173C90011EB000C43F10003590210
:103C600000234FEA4C2041EADC51FCF793FD194B4D
:103C70005B68C3F3014301335B00B0FBF3F008BDA5
:103C8000144B5868C0F388104FEA401CBCEB000C82
:103C90006EEB0E0E4FEA8E1343EA9C634FEA8C11D3
:103CA000B1EB0C0163EB0E03DB0043EA5173C90077
:103CB00011EB000C43F10003990200234FEA8C2022
:103CC00041EA9C51FCF766FDD1E70348D7E703487A
:103CD000D5E700BF0038024000127A000024F4004B
:103CE000002800F0A08070B50D460446524B1B68BA
:103CF00003F00F038B420BD24F4A136823F00F03DC
:103D00000B431360136803F00F038B4240F08D8068
:103D1000236813F0020F17D013F0040F04D0474AA2
:103D2000936843F4E0539360236813F0080F04D0C2
:103D3000424A936843F460439360404A936823F097
:103D4000F003A1680B439360236813F0010F31D097
:103D50006368012B20D0022B25D0384A126812F05C
:103D6000020F64D035498A6822F0030213438B6046
:103D7000FEF778FA0646314B9B6803F00C03626845
:103D8000B3EB820F16D0FEF76DFA801B41F2883339
:103D90009842F0D9032045E0284A126812F4003F07
:103DA000E0D101203EE0254A126812F0007FD9D10F
:103DB000012037E0204B1B6803F00F03AB420AD908
:103DC0001D4A136823F00F032B431360136803F09D
:103DD0000F03AB422DD1236813F0040F06D0174A0E
:103DE000936823F4E053E1680B439360236813F076
:103DF000080F07D0114A936823F46043216943EA0E
:103E0000C1039360FFF7FEFE0C4B9B68C3F30313E3
:103E10000B4AD35CD8400B4B18600B4B1868FEF76D
:103E2000E3F9002070BD012070470120FAE701206E
:103E3000F8E70120F6E700BF003C024000380240EE
:103E400058D600080000002008000020014B186828
:103E5000704700BF0000002008B5FFF7F7FF044BD4
:103E60009B68C3F38223034AD35CD84008BD00BFDC
:103E70000038024050D6000808B5FFF7E7FF044BB2
:103E80009B68C3F34233034AD35CD84008BD00BFEC
:103E90000038024050D60008F0B583B004460668EA
:103EA00016F001060DD0B54B9A6822F400029A6014
:103EB0009A68416B0A439A60436B002B00F067815C
:103EC0000026256815F4002511D0AC4AD2F88C30B4
:103ED00023F44013E16B0B43C2F88C30E36BB3F572
:103EE000801F00F05681002B00F0558100252368CB
:103EF00013F4801F0FD0A14AD2F88C3023F4400372
:103F0000216C0B43C2F88C30236CB3F5800F00F0AA
:103F1000448103B90125236813F0807F00D0012676
:103F200013F0200F40F03B81236813F0100F0CD0EA
:103F3000924BD3F88C2022F08072C3F88C20D3F8F7
:103F40008C20A16B0A43C3F88C20236813F4804FA4
:103F500008D08A4AD2F8903023F44033616E0B4384
:103F6000C2F89030236813F4004F08D0834AD2F887
:103F7000903023F44023A16E0B43C2F890302368A5
:103F800013F4803F08D07D4AD2F8903023F44013D8
:103F9000E16E0B43C2F89030236813F4003F08D061
:103FA000764AD2F8903023F44003216F0B43C2F8D5
:103FB0009030236813F0400F08D0704AD2F8903048
:103FC00023F00303616C0B43C2F89030236813F0B5
:103FD000800F08D0694AD2F8903023F00C03A16C0E
:103FE0000B43C2F89030236813F4807F08D0634AF3
:103FF000D2F8903023F03003E16C0B43C2F89030DC
:10400000236813F4007F08D05C4AD2F8903023F084
:10401000C003216D0B43C2F89030236813F4806F06
:1040200008D0564AD2F8903023F44073616D0B43A8
:10403000C2F89030236813F4006F08D04F4AD2F8CA
:10404000903023F44063A16D0B43C2F89030236895
:1040500013F4805F08D0494AD2F8903023F44053DB
:10406000E16D0B43C2F89030236813F4005F08D071
:10407000424AD2F8903023F44043216E0B43C2F8F9
:104080009030236813F4800F08D03C4AD2F8903067
:1040900023F08063A16F0B43C2F89030236813F4C0
:1040A000001F0DD0354AD2F8903023F00063E16F45
:1040B0000B43C2F89030E36FB3F1006F00F0D5808E
:1040C000236813F0080F00D0012513F4802F08D0C7
:1040D0002A4AD2F8903023F04073616F0B43C2F844
:1040E0009030236813F4000F09D0244AD2F890309E
:1040F00023F08053D4F880100B43C2F8903023682B
:1041000013F0806F09D01D4AD2F8903023F000538D
:10411000D4F884100B43C2F89030236813F0006F7A
:1041200009D0164AD2F88C3023F00073D4F88810E6
:104130000B43C2F88C30236813F0805F09D00F4A1C
:10414000D2F88C3023F08063D4F88C100B43C2F883
:104150008C3026B9236813F0007F00F00681074AEF
:10416000136823F080631360FEF77CF80646034B68
:104170001B6813F0006F7AD002E000BF00380240E5
:10418000FEF770F8801B6428F1D90320F0E00126C7
:1041900097E60126A7E60125A9E60126B9E67F4BA9
:1041A0001A6C42F080521A641B6C03F08053019326
:1041B000019B7B4A136843F480731360FEF752F847
:1041C0000746774B1B6813F4807F06D1FEF74AF849
:1041D000C01B6428F5D90320CAE0704B1B6F13F491
:1041E000407315D0226B02F440729A4210D06B4B90
:1041F0001A6F22F44072196F41F480311967196FF8
:1042000021F4803119671A671B6F13F0010F12D167
:10421000236B03F44072B2F5407F1DD05F4A936870
:1042200023F4F81393605D490B6F226BC2F30B020A
:1042300013430B6778E6FEF715F80746574B1B6FDD
:1042400013F0020FE4D1FEF70DF8C01B41F28833E2
:104250009842F3D903208BE05048826822F4F81288
:10426000504919400A438260DDE7012528E72368A9
:1042700013F0010F13D0636B8BB9484AD2F8843026
:10428000D2F88410606803F4403343EA801301F0ED
:1042900070610B43A16843EA0173C2F8843023685C
:1042A00013F4002F03D0E26BB2F5801F06D013F495
:1042B000801F1ED0236CB3F5800F1AD1374AD2F875
:1042C0008430D2F88410606803F4403343EA8013EA
:1042D000E06843EA006301F0E0410B43C2F8843038
:1042E000D2F88C3023F01F03616A01390B43C2F806
:1042F0008C30236813F0807F11D0284AD2F88400D4
:10430000D2F88410666823691B0443EA861300F020
:104310007060034301F0E0410B43C2F8843023682E
:1043200013F0007F0DD0626823691B0443EA8213F7
:10433000E26843EA0263A26843EA0273174AC2F8DA
:104340008430164A136843F080631360FDF78AFFD8
:104350000646124B1B6813F0006F06D1FDF782FF73
:10436000801B6428F5D9032002E0012D02D0002033
:1043700003B0F0BD094A136823F080531360FDF7C2
:1043800071FF0546054B1B6813F0005F0CD0FDF76D
:1043900069FF401B6428F5D90320E9E70038024093
:1043A00000700040FFFCFF0F236813F4002F01D0C2
:1043B000E26B22B113F4801F1DD0236CDBB9354AA8
:1043C000D2F88830D2F88810606903F4403343EAA9
:1043D0008013A06943EA006301F0E0410B43C2F897
:1043E0008830D2F88C3023F4F853A16A013943EABB
:1043F0000123C2F88C30236813F4001F03D0E36F4D
:10440000B3F1006F31D0236813F0080F19D0214A9F
:10441000D2F88810D2F88830606903F4403343EA58
:10442000801301F070610B43E16943EA0173C2F844
:104430008830D2F88C3023F44033E16A0B43C2F861
:104440008C30144A136843F080531360FDF70AFF61
:104450000446104B1B6813F0005F19D1FDF702FFF3
:10446000001B6428F5D9032082E70A4AD2F88800A5
:10447000D2F888106569236A1B0443EA851300F0AB
:104480007060034301F0E0410B43C2F88830BAE7A3
:1044900000206DE700380240026852E8003F23F434
:1044A000907342E800310029F6D1026802F1080356
:1044B00053E8003F23F00103083242E800310029AD
:1044C000F3D1036E012B06D02023C0F880300023E7
:1044D000036683667047026852E8003F23F01003CA
:1044E00042E800310029F6D1EEE7704708B50268CE
:1044F00052E8003F23F0400342E800310029F6D1A2
:104500002023C3670023C366FFF7EFFF08BD704792
:1045100008B5806B0023A0F85A30A0F85230FFF79E
:10452000F6FF08BD7047704770B504460268D3694E
:104530001168906840F60F0C13EA0C0F0AD113F0C3
:10454000200F0DD011F0200F0AD0A36E0BB3204620
:1045500098471EE010F001051CD1AB4E314219D135
:10456000256E012D00F0A48013F4801F03D010F4F9
:10457000800F40F0378113F0800F03D011F0800FCF
:1045800040F0378113F0400F03D011F0400F40F09E
:10459000378170BD13F0010F09D011F4807F06D070
:1045A00001201062D4F884200243C4F8842013F060
:1045B000020F09D045B1226802201062D4F884208D
:1045C00042F00402C4F8842013F0040F09D045B16E
:1045D000226804201062D4F8842042F00202C4F859
:1045E000842013F0080F0BD011F0200F00D13DB143
:1045F000226808201062D4F884200243C4F8842082
:1046000013F4006F0CD011F0806F09D022684FF4C2
:1046100000601062D4F8842042F02002C4F88420A4
:10462000D4F88420002AB4D013F0200F06D011F063
:10463000200F03D0A36E0BB120469847D4F88420F6
:1046400023689B6813F0400F02D112F0280F28D086
:104650002046FFF721FF23689B6813F0400F1CD012
:10466000226802F1080353E8003F23F040030832B8
:1046700042E800310029F3D1636F53B1634A1A65F0
:10468000606FFEF77BFB002883D0606F036D984757
:104690007FE72046FFF73BFF7BE72046FFF737FF2A
:1046A00077E72046FFF733FF0023C4F8843070E734
:1046B00013F0100F3FF458AF11F0100F3FF454AF48
:1046C0001023136223689B6813F0400F50D0626F71
:1046D00013685B689BB2002B3FF45BAFB4F85810D3
:1046E00099427FF656AFA4F85A30D369B3F5807F6C
:1046F00031D0226852E8003F23F4807342E8003151
:104700000029F6D1226802F1080353E8003F23F0A4
:104710000103083242E800310029F3D1226802F196
:10472000080353E8003F23F04003083242E8003119
:104730000029F3D12023C4F88030002323662268A7
:1047400052E8003F23F0100342E800310029F6D17F
:10475000606FFEF7C9FA02236366B4F85810B4F824
:104760005A309BB2C91A89B22046FFF7DBFE10E728
:10477000B4F85810B4F85A309BB2C91A89B2B4F8D8
:104780005A309BB2002B3FF404AF00293FF401AF35
:10479000226852E8003F23F4907342E8003000287A
:1047A000F6D1226802F1080353E8003F23F0010329
:1047B000083242E800300028F3D12023C4F88030CA
:1047C00000232366A366226852E8003F23F010030B
:1047D00042E800300028F6D1022363662046FFF746
:1047E000A1FED6E64FF4801313622046FFF79BFE2E
:1047F000CFE6E36E002B3FF4CCAE20469847C8E6E8
:104800002046FFF773FEC4E62001000411450008AE
:1048100010B5044683680269134342691343C269B1
:10482000134301680868914A02401A430A602268EB
:10483000536823F44053E1680B435360A269236A31
:104840001A4321688B6823F4306313438B60236819
:10485000874A934218D0874A93423AD0864A934275
:104860004FD0864A93425ED0854A93426DD0854AA6
:1048700093427FD0844A934200F09180834A9342CE
:1048800000F0A28010230BE0814BD3F8903003F0AE
:104890000303032B1BD8DFE803F00216AB18012338
:1048A000E069B0F5004F00F0D780082B00F23881A6
:1048B000DFE813F014012701120136012A01360145
:1048C000360136012D010423EAE70823E8E7102327
:1048D000E6E76F4BD3F8903003F00C030C2B0ED8A7
:1048E000DFE803F0070D0D0D090D0D0D880D0D0D01
:1048F0000B000023D4E70423D2E70823D0E71023DA
:10490000CEE7634BD3F8903003F03003202B73D005
:1049100005D8002B72D0102B72D10423C0E7302BA6
:1049200070D10823BCE75A4BD3F8903003F0C00392
:10493000802B69D005D8002B68D0402B68D1042388
:10494000AEE7C02B66D10823AAE7514BD3F89030CD
:1049500003F44073B3F5007F5ED006D8002B5DD022
:10496000B3F5807F5CD104239AE7B3F5407F59D13A
:10497000082395E7464BD3F8903003F44063B3F532
:10498000006F51D006D8002B50D0B3F5806F4FD1B7
:10499000042385E7B3F5406F4CD1082380E73C4BF7
:1049A000D3F8903003F44053B3F5005F44D006D8F9
:1049B000002B43D0B3F5805F42D1042370E7B3F5F9
:1049C000405F3FD108236BE7314BD3F8903003F4BD
:1049D0004043B3F5004F37D005D8BBB3B3F5804F94
:1049E00036D104235CE7B3F5404F33D1082357E7B2
:1049F000022355E7022353E7022351E700234FE741
:104A000010234DE710234BE7022349E7002347E734
:104A1000102345E7102343E7022341E700233FE744
:104A200010233DE710233BE7022339E7012337E753
:104A3000102335E7102333E7022331E700232FE764
:104A400010232DE710232BE7022329E7002327E774
:104A5000102325E7102323E7082B5BD8DFE803F0BA
:104A60001A343A5A375A5A5A1E0000BFF369FFEFF8
:104A7000001001400044004000480040004C00404D
:104A8000005000400014014000780040007C0040CD
:104A900000380240FFF7E0F900283DD06268530873
:104AA00003EB4003B3FBF2F3A3F110014FF6EF72F7
:104AB000914233D89AB222F00F02C3F34203134358
:104AC0002268D360002030E0FFF7D6F9E4E7FFF773
:104AD00099F8E1E71748E1E7164802E0FFF7BCF96B
:104AE00000B3636800EB5300B0FBF3F0A0F11002D9
:104AF0004FF6EF739A4217D8236880B2D86000202F
:104B000013E0FFF7B9F9EBE7FFF77CF8E8E74FF4BC
:104B10000040E6E7012008E0002006E0012004E074
:104B2000012002E0002000E001200023A366E366EC
:104B300010BD00BF0024F400436A13F0010F06D03B
:104B40000268536823F40033816A0B435360436A5D
:104B500013F0020F06D00268536823F48033C16A51
:104B60000B435360436A13F0040F06D00268536886
:104B700023F48023016B0B435360436A13F0080F47
:104B800006D00268536823F40043416B0B43536023
:104B9000436A13F0100F06D00268936823F4805321
:104BA000816B0B439360436A13F0200F06D00268B9
:104BB000936823F40053C16B0B439360436A13F073
:104BC000400F0AD00268536823F48013016C0B4332
:104BD0005360036CB3F5801F0BD0436A13F0800F52
:104BE00006D00268536823F40023816C0B435360A2
:104BF00070470268536823F4C003416C0B43536051
:104C0000EBE72DE9F84305460F4616469946DDF8D1
:104C100020802B68DC6937EA04040CBF01240024DF
:104C2000B44255D1B8F1FF3FF3D0FDF71BFBA0EB29
:104C3000090040452ED8B8F1000F2BD02B681A6818
:104C400012F0040FE5D0DA6912F4006FE1D04FF4EE
:104C500000621A622A6852E8003F23F4D07342E8E7
:104C600000310029F6D12A6802F1080353E8003F19
:104C700023F00103083242E800310029F3D1202358
:104C8000EB67C5F88030C5F88430002385F87830AC
:104C900003201EE02A6852E8003F23F4D07342E864
:104CA00000310029F6D12A6802F1080353E8003FD9
:104CB00023F00103083242E800310029F3D1202318
:104CC000EB67C5F88030002385F87830032000E0DA
:104CD0000020BDE8F8832DE9F04182B01E46C36F85
:104CE000202B4ED104460D469046002A18BF0029BD
:104CF00001D1012046E00023C0F884302123C3679E
:104D0000FDF7B0FA0746A4F85080A4F85280A368D3
:104D1000B3F5805F02D04FF0000811E0236913B3B0
:104D20004FF000080CE038F8023B2268C3F3080398
:104D30009362B4F8522092B2013A92B2A4F852208F
:104D4000B4F852309BB28BB100963B4600228021D2
:104D50002046FFF756FFC0B9002DE4D015F8012B0F
:104D600023689A62E5E7A8460025E9E700963B46F6
:104D7000002240212046FFF744FF40B92023E3678B
:104D800000E0022002B0BDE8F0810320FAE7032032
:104D9000F8E730B583B004460023C0F88430FDF74F
:104DA00061FA05462268126812F0080F0FD12368D5
:104DB0001B6813F0040F18D12023E367C4F8803078
:104DC00000202066606684F8780003B030BD6FF084
:104DD0007E430093034600224FF400112046FFF764
:104DE00010FF0028E3D00320EFE76FF07E4300932D
:104DF0002B4600224FF480012046FFF702FF0028D7
:104E0000DAD00320E1E768B310B50446C36F03B3FB
:104E10002423E3672268136823F00103136020460C
:104E2000FFF7F6FC012813D0636ABBB92268536808
:104E300023F4904353602268936823F02A0393601D
:104E40002268136843F0010313602046FFF7A1FFB7
:104E500010BD80F87830FDF733F8D9E72046FFF72A
:104E60006BFEE3E70120704782B000230193019BB2
:104E700001330193019A0F4B9A4215D80369002B15
:104E8000F5DA00230193036943F001030361019BF9
:104E900001330193019A074B9A4208D8036913F032
:104EA000010FF4D1002000E0032002B0704703207E
:104EB000FBE700BF400D030084B010B5044603A813
:104EC00080E80E00089B012B1DD1A36B23F48033D7
:104ED000A363E268164B1340E360E36823F44013D6
:104EE000E3600F9B012B09D02046FFF7BDFF069B17
:104EF000012B14D0BDE8104004B07047E36843F4C0
:104F00008013E360F0E7E36843F04003E36020468A
:104F1000FFF7AAFFA36B43F48033A363E7E7A3681B
:104F200043F00603A360A36843F02003A360E1E716
:104F3000BFFFBDFF836823F001038360002070473B
:104F400082B000230193019B01330193019A0F4B1F
:104F50009A4215D80369002BF5DA002301938901E1
:104F600041F020010161019B01330193019A074B3C
:104F70009A4208D8036913F0200FF4D1002000E012
:104F8000032002B070470320FBE700BF400D030081
:104F900082B000230193019B01330193019A0E4BD0
:104FA0009A4213D80369002BF5DA002301931023EA
:104FB0000361019B01330193019A074B9A4208D880
:104FC000036913F0100FF4D1002000E0032002B0B9
:104FD00070470320FBE700BF400D0300D0F8003806
:104FE0001943C0F8001800207047000084B02DE974
:104FF000F041044607A880E80E00002306E003F114
:10500000400204EB82020021516001330E2BF6D9DD
:10501000119F27BBD4F8043843F00203C4F80438C6
:10502000A36B23F40013A363236843F040032360BE
:10503000236843F0800323600023C4F8003E04F596
:105040000065D4F80038C4F800380C9B012B10D14F
:10505000099B4BB900212046FFF7C0FF0DE0A36B71
:1050600043F40013A363E7E701212046FFF7B6FFEF
:1050700003E003212046FFF7B1FF10212046FFF790
:105080005FFF804608B14FF001082046FFF780FF20
:1050900008B14FF0010800232B616B61EB610AE05E
:1050A000C3B94FF00060C2F8000900220A614FF650
:1050B0007F328A6001330799994210D904EB431279
:1050C00002F51061D2F800090028E9DB0020C2F8DF
:1050D0000009EAE74FF09040C2F80009E5E7002335
:1050E0000AE0C3B14FF0904CC2F800CB002202613D
:1050F0004FF67F3282600133994211D904EB43129B
:1051000002F53060D2F8006B002EEADB4FF0000CA5
:10511000C2F800CBEAE74FF0006CC2F800CBE5E73D
:105120002B6923F480732B610023A3616FF080430C
:1051300063610A9B1BB9A36943F01003A361A269D1
:105140000A4B1343A3610D9B1BB1A36943F00803F2
:10515000A361012F04D04046BDE8F04104B0704780
:10516000A269034B1343A361F5E700BF00383C80FD
:1051700004000040D0F8003E23F00303C0F8003ED6
:10518000D0F8043843F00203C0F804380020704718
:10519000406900F00100704738B50546C36823F048
:1051A000C043C360012913D019BBC36843F08043D7
:1051B000C36000240120FDF75BF801342846FFF7A7
:1051C000E7FF08B1312CF5D9322C14D0002038BDBE
:1051D000C36843F00053C36000240120FDF748F882
:1051E00001342846FFF7D4FF0128EDD0312CF4D943
:1051F000EAE70120EBE70120E9E708B501F0BBFF92
:1052000010B102684068904708BD0000EFF30583C5
:105210007BB9EFF3108313B9EFF311831BB1094B83
:105220001B68022B08D0074B186840B901221A608E
:1052300070476FF0050070476FF0050070474FF042
:10524000FF3070471041002008B5EFF30583A3B984
:10525000EFF3108313B9EFF311831BB10B4B1B68F2
:10526000022B0DD0094B1B68012B0CD1074B0222DE
:105270001A6001F0BFF9002008BD6FF00500FBE7E0
:105280006FF00500F8E74FF0FF30F5E71041002020
:10529000F0B587B000240594EFF30584002C38D1D5
:1052A000EFF3108313B9EFF311831BB12D4B1B6880
:1052B000022B2ED068B322B31568936903B9182363
:1052C0005C1E372C49D8546814F0010F47D1566939
:1052D0006EB14FEA960C94682CB1D7685B2F02D957
:1052E000176907B1C6B92CB14FF0FF340EE04FF08B
:1052F000800CF0E7D4688CB9146994B14FF0FF3496
:1053000004E01546002418234FF0800C012C0AD02D
:10531000ACB1059807B0F0BD0124F7E74FF0FF34BA
:10532000F4E70024F2E71469926802920194009372
:105330000B466246294601F0E9F80590E9E705AA1F
:10534000019200930B461FFA8CF2294601F01FF9D7
:105350000128DED000230593DBE70020DAE70020F8
:10536000D8E700BF1041002008B5EFF3058383B9EB
:10537000EFF3108313B9EFF311831BB1084B1B68D4
:10538000022B09D008B9002008BD01F09DFA0020C9
:10539000FAE76FF00500F7E76FF00500F4E700BFEC
:1053A000104100202DE9F04182B0EFF30585002D7A
:1053B00041D10646884617461C46EFF3108313B9C1
:1053C000EFF311831BB1214B1B68022B37D0002E4A
:1053D00037D0082000F0D2FA70B306604760B8F109
:1053E000000F00D001250CB32668A36813B1E26852
:1053F0002B2A11D85BB14FF0FF3323BB144B009322
:1054000003462A460121304601F0D4FC14E0E3684B
:105410007BB14FF0FF33F0E701930D4B0093034650
:105420002A460121304601F0E1FC05E02646002332
:10543000E3E70023E1E7002002B0BDE8F0810020AF
:10544000FAE70020F8E70020F6E700BF104100204F
:10545000FB510008EFF30583C3B90A46EFF310834D
:1054600013B9EFF311831BB10E4B1B68022B10D045
:1054700090B100B583B000230093042101F0E4FC57
:1054800001280CD1002003B05DF804FB6FF005008B
:1054900070476FF0050070476FF0030070476FF0C2
:1054A0000200F0E710410020034B0360034B0B6048
:1054B00080231360704700BFB4400020B43E00203A
:1054C000034B0360034B0B604FF480731360704712
:1054D000583E0020583A002000F1080343604FF086
:1054E000FF328260C36003610023036070470023C2
:1054F0000361704743684B609A688A6051609960A5
:105500000861036801330360704730B40D68B5F17A
:10551000FF3F11D000F108031C465B681A68AA42DD
:10552000FAD963684B6099608C60616008610368B8
:105530000133036030BC70470469F2E703694168D6
:1055400082688A60416851605A68824206D00022AF
:1055500002611A68013A1A601868704782685A60D6
:10556000F5E7000082B0002301930F4B1B68B3F1F5
:10557000FF3F0AD04FF0500372B683F31188BFF398
:105580006F8FBFF34F8F62B6FEE74FF0500372B6D6
:1055900083F31188BFF36F8FBFF34F8F62B6019B08
:1055A000002BFCD002B070470C00002008480068B7
:1055B000006880F308884FF0000080F3148862B61A
:1055C00061B6BFF34F8FBFF36F8F00DF00BF0000E6
:1055D00008ED00E0DFF80C00016841F470010160A3
:1055E0007047000088ED00E04FF0807340F8043C05
:1055F00021F0010140F8081C054B40F80C3C40F834
:10560000202C6FF0020340F8243C4438704700BF60
:1056100065550008000000000000000000000000C8
:10562000074B19680868B0E8F04F80F30988BFF3AA
:105630006F8F4FF0000080F311887047AFF3008048
:10564000708200204FF0500372B683F31188BFF3CD
:105650006F8FBFF34F8F62B60C4A1368013313602C
:10566000012B00D070474FF0E023D3F8043D13F036
:10567000FF0FF7D04FF0500372B683F31188BFF3DA
:105680006F8FBFF34F8F62B6FEE700BF0C000020A4
:105690000A4B1B6853B94FF0500372B683F311885D
:1056A000BFF36F8FBFF34F8F62B6FEE7013B034A34
:1056B00013600BB983F31188704700BF0C00002002
:1056C000EFF30980BFF36F8F154B1A681EF0100FB0
:1056D00008BF20ED108A20E9F04F10602DE9090085
:1056E0004FF0500072B680F31188BFF34F8FBFF3B5
:1056F0006F8F62B601F010F94FF0000080F311884F
:1057000009BC19680868B0E8F04F1EF0100F08BF18
:10571000B0EC108A80F30988BFF36F8F704700BF29
:105720007082002008B54FF0500372B683F31188E1
:10573000BFF36F8FBFF34F8F62B600F0B9FF28B190
:105740004FF0E0234FF08052C3F8042D002383F381
:10575000118808BD4FF0E022002313619361054BCF
:105760001B680549A1FB03139B09013B53610723F8
:105770001361704700000020D34D621030B583B034
:105780002F4B1A78D2B20192FF221A701B78DBB22B
:105790008DF803309DF8033003F05003294A13704D
:1057A000294B07221A6009E0274A1368013B13605E
:1057B0009DF803305B00DBB28DF803309DF80330B9
:1057C00013F0800FF0D1204B1B68032B0AD04FF051
:1057D000500372B683F31188BFF36F8FBFF34F8FFF
:1057E00062B6FEE71B02184A136003F4E06313601D
:1057F000019BDBB2124A13704FF0E024D4F8203D35
:1058000043F47003C4F8203DD4F8203D43F07043C6
:10581000C4F8203DFFF79EFF00250C4B1D60FFF7ED
:10582000D9FED4F8343F43F04043C4F8343FFFF787
:10583000BDFE01F071F8FFF795FE284603B030BDBC
:1058400000E400E018410020144100200C0000207A
:10585000EFF305830F2B11D9134A9B5CDBB2134A7C
:1058600012789A420AD94FF0500372B683F3118826
:10587000BFF36F8FBFF34F8F62B6FEE74FF0E023A9
:10588000D3F80C3D03F4E063094A126893420AD945
:105890004FF0500372B683F31188BFF36F8FBFF3DD
:1058A0004F8F62B6FEE77047F0E300E0184100203A
:1058B00014410020124A12F0070F1ED0D11D21F012
:1058C0000701C1F5705313440A460E4802600021D7
:1058D00041601344083B23F007030B480360596001
:1058E0001960991A51601360084B1960084B1960D0
:1058F000084B4FF000421A6070474FF47053E4E7D2
:10590000344100202C41002028410020204100206B
:10591000244100201C410020164B1A461B6883427C
:10592000FBD3516802EB010C844509D0416800EBC0
:10593000010C634509D00360904219D01060704794
:105940004068014451601046F0E710B40A4C2468E6
:10595000A3420BD05B681944416013681B68036065
:10596000904200D010605DF8044B70470460F7E788
:10597000704700BF2C4100202841002038B5044664
:1059800000F088FE384B1B68B3B1384B1B681C42D3
:105990004ED1002C4ED004F1080214F0070F02D0B3
:1059A00022F007020832002A55D0314B1B6893427F
:1059B00053D330490C6804E0FFF77CFFE5E721464C
:1059C0001C466368934202D22368002BF7D1264B12
:1059D0001B68A34243D00D68083523680B606368D9
:1059E0009B1A102B12D9A01810F0070F0AD04FF0F5
:1059F000500372B683F31188BFF36F8FBFF34F8FDD
:105A000062B6FEE743606260FFF786FF626818498E
:105A10000B689B1A0B60184909688B4201D2164922
:105A20000B60124B1B68134363600023236002E08A
:105A3000002500E0002500F0C9FE15F0070F10D08A
:105A40004FF0500372B683F31188BFF36F8FBFF32B
:105A50004F8F62B6FEE70025EDE70025EBE7002556
:105A6000E9E7284638BD00BF284100201C4100203E
:105A7000244100202C41002020410020002834D067
:105A800038B50446A0F1080550F8043C174A1268DE
:105A900013420AD14FF0500372B683F31188BFF35B
:105AA0006F8FBFF34F8F62B6FEE750F8081C51B1FD
:105AB0004FF0500372B683F31188BFF36F8FBFF3BB
:105AC0004F8F62B6FEE723EA020340F8043C00F081
:105AD000E1FD54F8041C064A13680B441360284681
